:100000000C9486060C94BE060C94BE060C94622CCE
:100010000C94BE060C94BE060C94BE060C94BE0650
:100020000C94BE060C94BE060C9464140C947B18BD
:100030000C94D5250C94BE060C94BE060C94BE06FA
:100040000C94BE060C94BE060C94BE060C94BE0620
:100050000C94BE060C943D150C94BE060C94BE0682
:100060000C94BE060C94BE060C94BE060C94BE0600
:100070000C94BE060C94BE060C94BE060C94BE06F0
:100080000C94BE060C94BE060C94BE060C94BE06E0
:100090000C94BE060C94BE060C94BE060C94BE06D0
:1000A0000C94BE060C94BE060C94BE062B001400E5
:1000B0001A00080015001700E100040016000700F0
:1000C00009000A00E0001D001B00060019000500E1
:1000D000000000000000E3002C0021522A00130061
:1000E00012000C0018001C00340033000F000E003A
:1000F0000D000B00290038003700360010001100F9
:10010000000000000000E200225228002B001E0028
:100110001F00200021002200E0003A003B003C00CC
:100120003D003E00E10044004500000000000000EA
:10013000000000000000E30001002C002A0027005E
:1001400026002500240023004C0000004F00520030
:1001500051005000490043004200410040003F0070
:10016000000000000000E600235228002B001E02C1
:100170001F02200221022202E00000000000000015
:1001800000000000E100000000000000000000008E
:10019000000000000000E30023522C002A00270288
:1001A00026022502240223023500310030002F00F0
:1001B0002E002D003502310230022F022E022D02B8
:1001C000000000000000E60001002800007C0000A4
:1001D00000000000000000002078237825782778B0
:1001E000000000002178247826782878000000009C
:1001F000000000000000E30001002C0000000000EF
:1002000000000000000000000000000000000000EE
:1002100000000000000000000000000000000000DE
:10022000000000000000E6000100280000DA028162
:10023000FFD9F1DB20A4A62EAF00A0C0D30000A1FF
:10024000C8D30000AED580A81F408D142000000147
:100250000101010101010101020202020202020286
:100260000203030303030303030404040404040458
:10027000050505050506060606060707070707081C
:10028000080808090909090A0A0A0B0B0B0C0C0CCF
:100290000D0D0D0E0E0E0F0F0F1010111111121269
:1002A00013131414151516161717181819191A1AE6
:1002B0001B1B1C1D1D1E1E1F202021222223242447
:1002C000252626272829292A2B2C2D2D2E2F303183
:1002D0003232333435363738393A3B3C3D3E3F4095
:1002E0004142434445464748494A4C4D4E4F505180
:1002F0005354555658595A5B5D5E5F61626465663A
:1003000068696B6C6D6F7072737577787A7B7D7EC0
:100310008082838587888A8C8E8F91939596989A10
:100320009C9EA0A2A3A5A7A9ABADAFB1B3B5B7BA28
:10033000BCBEC0C2C4C6C9CBCDCFD1D4D6D8DBDDFC
:10034000DFE2E4E7E9EBEEF0F3F5F8FAFDFF00AFEA
:1003500000AE000000E000F8C0F8E0C0FC007E182D
:100360000080000280F000C080F8C0E070603C387F
:100370003C1C003F0C0F1F030701C300E08000E09E
:1003800080F880C0F7C76F7B3930008000C000C0A4
:10039000C2E000403830381E181E0F0C0707070354
:1003A000032121313018181C080C0E07060703C35F
:1003B00003014CCCC2C24149092B2A6A6E24240491
:1003C0009292B1F1F1F2E6A4A40404282828282886
:1003D0002828636F726E6500209495962020B4B52E
:1003E000B62020D4D5D62000209D9E9F2020BDBEC3
:1003F000BF2020DDDEDF2000209798992020B7B8AD
:10040000B92020D7D8D92000209A9B9C2020BABBA5
:10041000BC2020DADBDC2000202020202000A7A840
:1004200000AFB000C600CA00C800A5A600ADAE006F
:100430008788008F9000C500C900C700CB00858663
:10044000008D8E00ABAC00CFD000C600CA00C80043
:10045000A9AA00B1B2008B8C00CDCE00C500C900A6
:10046000C700CB00898A0091920020200053200011
:100470002020004320002020004E2000000000101B
:1004800000000000000000081C0800000000000040
:10049000000002000000000010000000000000004A
:1004A000200000000000000000020040E0400000CA
:1004B00000000000040000000080C080C080000038
:1004C00000000000E0008000F00000C0000000001C
:1004D0000000004000000000000001008100C0009A
:1004E000FE00FC00FF20FFF00FF000FF0000000006
:1004F0001000000000009000F80000F8FF10FF84DA
:10050000FF60FF36FF0FFF3F005F000580008000A7
:10051000C03800ECF000FB80FFF0FFEFFFE8FF03C6
:10052000FF0CFF00FF00030000F80080FF20FFD059
:10053000FFE0FEF8FFFCFFFF0FFF013FFF000F0091
:1005400001000300FE80FE00C0FFC4FBFFFEFFFFB2
:10055000FF3FFFFF07FF033F000FC0000000B80090
:10056000FF40BEF0FFF1FFFEFFFFFFFF1FFF670030
:10057000EF001F0000070000E000FFF0FF88FFC44D
:10058000FFF8FFFFFFFFFFFF8F7F0FFF0007FE0059
:100590000700000000F800C03FF8E7FFFFFFFF1F63
:1005A000FFFF1F3F01FF0B00FF000005000000E000
:1005B00000F86080FEE3FCFF1EFFFF23FF09FF2021
:1005C000003F0200000F004000C000FCE0FCF0FF14
:1005D000FF7FFCFF0FFF071F00010F000F0081705E
:1005E0000CF0800000E4F8E6703FCFFF1FFF48FFEB
:1005F0000F000700004360F8F0FE38FE00FC030027
:10060000C872CFFC00030F01E01CE003000F0000E4
:100610000000000000F806F900030007FF001012B8
:10062000C9F0CFB47F80E01E0140655EE00000F0BD
:100630000CF000807E018093FCC0000000000000F0
:1006400089182C46000721101080091331BFFF00C4
:10065000081AF70F0000444534BFB80010F008F442
:100660001811FC18FB0E10F804F810201809FF0CE4
:10067000EA1F286030F820C042332100050109023A
:10068000A10185020901A100050919012908150028
:10069000250195087501810205010930093115818F
:1006A000257F95027508810609381581257F9501FA
:1006B00075088106050C0A38021581257F9501759C
:1006C000088106C0C005010980A101850319012A1E
:1006D000B700150126B700950175108100C0050C03
:1006E0000901A101850419012AA002150126A00211
:1006F000950175108100C005010906A101050719C2
:10070000E029E7150025019508750181029501751D
:100710000881010507190029FF150026FF0095062D
:1007200075088100050819012905150025019505A1
:1007300075019102950175039101C009023B000208
:100740000100A0FA090400000103010100092111C0
:10075000010001224400070581030800010904018A
:10076000000103000000092111010001227B0007A4
:1007700005820320000112010002000000081D8D07
:100780003A340001010200012403410075007200A7
:100790006F0072006100200043006F0072006E0065
:1007A000650020007200650076003100000018032B
:1007B000730070006C00690074006B0062002E0012
:1007C00063006F006D0000000403090400000000D6
:1007D00000003E5B4F5B3E003E6B4F6B3E001C3E9D
:1007E0007C3E1C00183C7E3C18001C577D571C00AA
:1007F0001C5E7F5E1C0000183C180000FFE7C3E78A
:10080000FF00001824180000FFE7DBE7FF00304876
:100810003A060E00262979292600407F05050700A3
:10082000407F05253F005A3CE73C5A007F3E1C1C98
:100830000800081C1C3E7F0014227F2214005F5F0A
:10084000005F5F0006097F017F00006689956A00EE
:1008500060606060600094A2FFA2940008047E04BF
:10086000080010207E20100008082A1C0800081C20
:100870002A0808001E10101010000C1E0C1E0C0080
:1008800030383E383000060E3E0E060000000000F4
:10089000000000005F000000000700070000147F58
:1008A000147F1400242A7F2A120023130864620094
:1008B000364956205000000807030000001C224162
:1008C00000000041221C00002A1C7F1C2A0008088E
:1008D0003E08080000807030000008080808080082
:1008E0000000606000002010080402003E514945ED
:1008F0003E0000427F4000007249494946002141C4
:10090000494D33001814127F100027454545390022
:100910003C4A4949310041211109070036494949FA
:100920003600464949291E0000001400000000401E
:1009300034000000000814224100141414141400A0
:100940000041221408000201590906003E415D5988
:100950004E007C1211127C007F49494936003E410D
:10096000414122007F4141413E007F4949494100C8
:100970007F09090901003E41415173007F080808C1
:100980007F0000417F4100002040413F01007F087F
:10099000142241007F40404040007F021C027F0043
:1009A0007F0408107F003E4141413E007F09090954
:1009B00006003E4151215E007F0919294600264963
:1009C0004949320003017F0103003F4040403F009E
:1009D0001F2040201F003F4038403F006314081490
:1009E00063000304780403006159494D4300007F0C
:1009F00041414100020408102000004141417F00B4
:100A00000402010204004040404040000003070887
:100A100000002054547840007F2844443800384473
:100A200044442800384444287F0038545454180063
:100A300000087E0902001824241C78007F080404A2
:100A4000780000447D4000002040403D00007F10C1
:100A50002844000000417F4000007C0478047800B6
:100A60007C08040478003844444438007C1824246A
:100A70001800182424187C007C080404080048543A
:100A80005454240004043F4424003C4040207C0093
:100A90001C2040201C003C4030403C0044281028D2
:100AA00044004C9090907C004464544C44000008F6
:100AB00036410000000077000000004136080000C9
:100AC0000201020402003C2623263C000000000034
:100AD00000000000C0E0F0F8F81800C0F0FCFEFFD5
:100AE000FFFFFFFFFFFF7E00000000F8042252E23C
:100AF000424242E252222222428202022222020484
:100B0000F80000F8040202824222428202020282BB
:100B10004222122242820204F80000F8FCDEAE1EDD
:100B2000BEBEBE1EAEDEDEDEBE7EFEFEDEDEFEFC37
:100B3000F80000F8FCFEFE7EBEDEBE7EFEFE00007B
:100B40000000000080804040202010100808101095
:100B50002020404080808080C0C0E0E0F0F0F8F8C5
:100B6000F0F0E0E0C0C08080808040402020101085
:100B700008081010202040408080808040C060A085
:100B800050B058A850B060A040C0808000F8FCFE73
:100B9000FFE000FFFFFFFFFFFF80FFFFFFFFFFFF02
:100BA000FFFFFF1F070100000000001F20444A470D
:100BB000424242474A44404040404142444440202F
:100BC0001F00001F20404140404040404140414103
:100BD0004F4848484F4141201F00001F3F7B757818
:100BE0007D7D7D78757B7F7F7F7F7E7D7B7B7F3F7B
:100BF0001F00001F3F7F7E7F7F7F7F7F7E7F000003
:100C00000000000088885D5D3E3E7C7CF8F87C7CBE
:100C10003E3E5D5D888888885555232347478F8FE2
:100C200047472323555588888888D5D5E2E2C4C430
:100C30008888C4C4E2E2D5D5888888885DD56BB63B
:100C40006DD6ADDA6DD66BB65DD5888800030F1F03
:100C50003F3F3F3F1F1F3F3F7F7F7F3F3F1F3F7F04
:100C60007F7F7F7C7878381C0F0004F80000F80440
:100C7000201F00001F20FCF80000F8043F1F0000A8
:100C80001F2004F80000F8FC201F00001F3FFCF8A4
:100C90000000F8FC3F1F00001F3FFE7EBEDEEEDEC0
:100CA000BE7EFEFCF8007E7E70777777707E7E3F9A
:100CB0001F00000000000000000000000000000015
:100CC00000000000000001010202040408080404FE
:100CD00002020101000000000101020204040808F0
:100CE00004040202010100000000010103030707E0
:100CF0000F0F0707030301010000000001010302B9
:100D000005060D0A050603020101000011241FBE9D
:100D1000CFEFDAE0DEBFCDBF04B603FE18C080918E
:100D2000A9069091AA06A091AB06B091AC068730B7
:100D3000904BA740B04B59F41092A9061092AA0606
:100D40001092AB061092AC06E0E0F8E3099512E0D1
:100D5000A0E0B1E0ECE6FDE502C005900D92AC39F3
:100D6000B107D9F726E0ACE9B2E001C01D92A93A7B
:100D7000B207E1F70E94FC250C94602E0C94000051
:100D800080919604837051F0846080939604109251
:100D90006C01809195048160809395040895482F9B
:100DA000209191049091580457E0291302C080E0EB
:100DB000089530E0529FF001539FF00D1124E75A3F
:100DC000FB4F8181681306C08081481303C0858171
:100DD0008111EECF2F5F3F4F2770E7CF90919604A0
:100DE000937071F08093970460939804413808F0F1
:100DF00040E8409399048091950481608093950424
:100E00000895E8EDF0E080818E7F80831092E2000B
:100E10001092DA001092E100A0EEB0E08C918160B7
:100E20008C9380818F77808319BCA7EDB0E08C9183
:100E30008E7F8C9380818F7E8083109241040895F1
:100E40002091E4003091E50095E6A9012091EC00A5
:100E5000822F817020FF06C08091E80080FF06C0CD
:100E600080E008952091E80022FD1AC080914E0490
:100E7000882389F0853089F08091EB0085FD0FC0D3
:100E80002091E4003091E50042175307F9F29150A8
:100E9000E1F684E0089582E0089583E0089581E01A
:100EA00008958091500487FF13C08091E80082FF6D
:100EB00006C08091E8008B778093E80004C08091A1
:100EC0004E048111F2CF089580914E048823D9F306
:100ED0008091E80080FFF8CF8091E8008E77ECCF1A
:100EE000982F9093E900242F762F50E0891731F046
:100EF0007091EC002091ED005091F00021FD07C0B1
:100F00009F5F973071F78093E90081E008953091F9
:100F1000EB003E7F3093EB003091ED003D7F30934E
:100F2000ED003091EB0031603093EB007093EC00FA
:100F30002093ED005093F0002091EE0027FDE0CFCC
:100F400080E00895B0E0A0E0E8EAF7E00C949C2D82
:100F5000C8EDD0E088818F7E8883E7EDF0E0808166
:100F60008160808384E082BF81E080934104888136
:100F70008E7F888302EE10E0F80110821092DA0072
:100F800081EEC82ED12CF601108288818F7788835C
:100F900088818068888388818F7D888319BC1092BE
:100FA0004E0410924F0410924D0410924C0490EE97
:100FB000E92EF12CF70180818B7F8083888181600D
:100FC000888342E060E080E00E947007F601808143
:100FD0008E7F8083F801808181608083808188603A
:100FE0008083F70180818E7F808388818061888300
:100FF000CDB7DEB7E8E00C94B82DFC018091560423
:101000009091570486179707A0F06115710529F490
:101010009091E8009E779093E80090E0611571054B
:1010200051F4911108C08091E80082FF34C080E043
:101030000895BC01F2CF80914E048823C1F1853020
:10104000C1F18091E80083FD30C08091E80082FD0D
:10105000EACF8091E80080FFE1CF8091F3002091FA
:10106000F200382F6115710519F02830310558F05C
:1010700091E02830310509F090E02091E8002E77CA
:101080002093E800CBCF81918093F10061507109EA
:101090002F5F3F4FE7CF80914E04882341F085308A
:1010A00041F08091E80083FFBECF81E0089582E0A7
:1010B000089583E0089508958091430408952FB71B
:1010C000F89460913D0470913E0480913F049091AA
:1010D00040042FBF08959C01FC0132969FEF80E0F1
:1010E0004191461751F09F3F19F4411101C0982FCB
:1010F0008F5F8630A9F79F3F09F40895290F311DAE
:1011000097FD3A95F90162830895A3E0B0E0EBE81A
:10111000F8E00C94A22D20913A0430913B0428175A
:101120003907A1F090933B0480933A04E09138048E
:10113000F0913904309751F024E029839B838A830E
:101140000084F185E02DCE01019609952396E2E019
:101150000C94BE2DA3E0B0E0E0EBF8E00C94A22DDF
:10116000209136043091370428173907A1F0909365
:10117000370480933604E0913804F09139043097B5
:1011800051F023E029839B838A830084F185E02D3D
:10119000CE01019609952396E2E00C94BE2D809134
:1011A0003404882359F0E0913804F09139043097E1
:1011B00029F00190F081E02D0995089580E00895CF
:1011C0008091290480FD16C081FD16C082FD16C0E5
:1011D000809128048823A1F0883280F428E0829F3F
:1011E000C001112468E270E00E94D52D862F672B84
:1011F00039F0089582E0089584E0089588E0089524
:1012000081E008958091290480FD14C081FD14C0FF
:1012100082FD16C080912704882381F08E3180F4EE
:1012200020E5829FC00111246EE170E00E94D52D5F
:10123000862F089584E1089588E2089588E008954E
:1012400080E50895282F35EB2303C001112497FF73
:1012500004C080589109892F089580589F4FFBCF73
:10126000FC01680F791F8FEF91E32191822728E01D
:1012700030E087FF09C0880F892721503109C9F75D
:10128000E617F70791F70895880FF7CF90E06623E8
:10129000A1F086599E4FFC0120812F3F89F0E22F5B
:1012A000E295EF70F0E080A190E02F7002C095957C
:1012B00087952A95E2F78170089587599E4FEBCF65
:1012C00080E0089590E06623E9F086599E4FFC0186
:1012D00080818F3FB1F0E82FE295EF70F0E041A1FF
:1012E0008F7021E030E0B90102C0660F771F8A9548
:1012F000E2F7CB01962F9095942391A392A1892B8D
:1013000082A3089587599E4FE2CF90912104E92F3F
:10131000F0E0409122049F012F5F3F4F237033275D
:1013200042171306A9F0ED5DFB4F282F2F77808120
:101330008078822B60FB87F980839F5F9370909306
:10134000210480911F048F5F80931F0481E0089522
:1013500080E00895CF93DF932091A7063091A806EF
:10136000215A3440A901460F571F4130524020F006
:1013700060E072E0621B730B40919F045091A004E7
:10138000FC01C901620F731FC1E0D0E08617970707
:1013900038F05093A00440939F04DF91CF910895BB
:1013A0002491DC01AF55BB4F3C91321781F02C9357
:1013B0009C01A5E036952795AA95E1F7DE0102C0CC
:1013C000AA0FBB1F2A95E2F79D014A2B532B0196CA
:1013D0003196DCCFFA01811101C0FB010995089516
:1013E00030913504311123C08B3191051CF14B979D
:1013F000FC01EE0FFF1FDF01A80FB91FA35BBC4F5D
:1014000011963C911197361307C03C91341304C0D8
:1014100012963C91321771F031E030934C03E80F93
:10142000F91FE35BFC4F61834083228303C08B3150
:101430009105F4F20895539A10924C030895E6E949
:10144000F4E0248130E1231B08F420E02483809120
:1014500095048160809395040895E6E9F4E0248181
:1014600030E1230F08F42FEF2483809195048160ED
:10147000809395040895E6E9F4E0438120E1421B5E
:1014800008F440E08181628190E00E94EE060895B8
:10149000E6E9F4E0438120E1420F08F44FEF818157
:1014A000628190E00E94EE060895E6E9F4E0628130
:1014B00020E1621B08F460E08181438190E00E949A
:1014C000EE060895E6E9F4E0628120E1620F08F497
:1014D0006FEF8181438190E00E94EE060895E6E976
:1014E000F4E08181438162818850990B0E94EE066D
:1014F0000895E6E9F4E0818190E0438162810896F5
:101500000E94EE06089580919604869586958150F6
:1015100009F481E00E94C006089581E00E94C0069F
:1015200008959BE0899F802D1124980F973308F030
:1015300096E320913504222321F09C3128F09BE191
:1015400008958B3108F48BE10895FF920F931F9358
:10155000CF93DF93182F062FF42ED0E0C0E02F2D6D
:10156000402F612FCE010E94F0092196C633D1058C
:10157000B1F7CDB7DEB7E5E00C94BB2D80E0089560
:1015800081E0809342030895F894E82FE295EF708C
:10159000F0E031A1282F2F7081E090E001C0880F8A
:1015A0002A95EAF7982F9095932391A392A1892BDE
:1015B00082A3789408950F931F9380913404882315
:1015C00029F00E945F081F910F9108950E945F0803
:1015D00000911B0310911C0320911D0330911E03E9
:1015E000600F711F821F931FEECF9091290392FF0E
:1015F00010C041E0282F2471243009F040E031E090
:10160000282F2871283009F030E0431711F02CE022
:10161000822793FF10C041E0282F2471243109F064
:1016200040E031E0282F2871283109F030E04317DD
:1016300011F02CE0822730912A0330FF10C051E0D6
:10164000282F2171213009F050E041E0282F287126
:10165000283009F040E0541711F029E0822731FFCB
:1016600010C041E0282F2171213109F040E031E024
:10167000282F2871283109F030E0431711F029E0B4
:10168000822794FD877E089582389105B9F1B0F4E0
:101690008133910509F47DC048F48932910509F43C
:1016A0006DC08A32910509F47BC008958533910598
:1016B00009F45FC08933910509F10895833E9105CE
:1016C000D9F138F4803E910529F1823E910579F1F6
:1016D0000895863E9105D9F1873E910509F43EC0F3
:1016E000843E910541F520912A0321FF24C0809179
:1016F000290384FD19C087EE90E008952091290305
:10170000237009F05AC020912A0323FF14C089E2F4
:1017100090E008952091290320FD38C030912A03DC
:1017200030FF09C024FF43C090E080E0089520917D
:10173000290322FDF7CF08952091290322FD3AC005
:1017400030912A0330FD39C024FFF5CFEDCF209131
:10175000290323FFF0CF24FDE7CFCDCF209129032C
:1017600023FD2EC030912A0331FFEECF84EE90E0AE
:1017700008952091290325FFDECFC9CF20912903A9
:1017800025FD21C020912A0323FFD5CF89E390E0D6
:10179000D2CF2091290326FFCECF8AE290E0089590
:1017A0002091290326FFC7CF81E390E0089583EEBF
:1017B00090E0089582EE90E0089580EE90E0089524
:1017C00086EE90E0089585E390E00895972F7830B5
:1017D000B8F46630A8F48430B0F470E026E0929F4C
:1017E000600D711D1124FB0190E3899FE00DF11D37
:1017F0001124EE0FFF1FE455FF4F8591949108953A
:1018000080E090E0089581E0FCCF1F93CF93DF93B9
:101810000E94440BEC01C11580E5D807F0F5C11515
:1018200080E4D80708F09CC0C03ED10520F5CD3C2F
:10183000D10508F082C0C83AD10578F4C53AD1057F
:1018400008F073C0C130D10519F1209709F1C430F7
:10185000D105F0F4D0E0C0E01BC0C33CD105D0F707
:10186000C85AD0E0CC0FDD1FC758DE4F0990D88191
:10187000C02DD4640DC0C11580E2D80708F0D1C0D6
:10188000C11581E0D80708F05AC0C83ED10510F74D
:10189000CE01DF91CF911F910895C03682E5D80720
:1018A00018F5C03482E5D80708F06BC0C03282E575
:1018B000D80708F05FC0C11582E5D80708F497C0C3
:1018C0002C2F2695269580E2289F900111248C2F9D
:1018D0008370C1E0D0E002C0CC0FDD1F8A95E2F733
:1018E000C22BD32BDD68D4CFC03A82E5D80760F491
:1018F000C03882E5D80708F459C0CF71D0E0DC2F9A
:10190000CC27C46FD06AC4CFC03C82E5D80708F4A6
:1019100062C0C03E82E5D80708F09CCFDC2FCC2700
:10192000CC27DF71C06FD06AB3CFC55AD0E0CA5898
:10193000DE4FC881D0E0D064ABCFD065A9CF8D2F6A
:101940000E94F50A182FCE0199270E94440BC12F3F
:10195000D0E0DC2FCC27CC27DF71C82BD92B98CF38
:10196000CE0199270E94440BCC27DF70C82BD92BBE
:10197000D06A8ECFCF71D0E0DC2FCC27C16FD06A78
:1019800087CF2C2F26952695277080E2289F9001DF
:1019900011248C2F8370C1E0D0E002C0CC0FDD1F7A
:1019A0008A95E2F7C22BD32BDC6872CF2C2F2695B9
:1019B0002695277080E2289F900111248C2F837038
:1019C000C1E0D0E002C0CC0FDD1F8A95E2F7C22B48
:1019D000D32BDA685DCF8C2F8F710E94F50AC82F48
:1019E000D0E0DC2FCC27CC27DF71D06251CF8C2FF9
:1019F0008F710E94F50A55E0D695C7955A95E1F783
:101A0000CF70D0E0DC2FCC27282F30E084FF05C03A
:101A100044E0220F331F4A95E1F7C22BD32BD06944
:101A200037CF8D2F8F710E94F50A182FCE0199277D
:101A30000E94440BC12FD0E0DC2FCC27CC27DF71D4
:101A4000C82BD92BD2CF80959091F30398239093F4
:101A5000F30308958091910490915804981301C064
:101A600008958F5F8770FACFB0E0A0E0EAE3FDE071
:101A70000C949B2D7C010091F1031091F203809155
:101A8000EF039091F003082B192BCFE0D0E0CC248A
:101A9000C394D12CBC2EC6010C2E02C0880F991FF6
:101AA0000A94E2F780239123892B49F4219790F738
:101AB000B12C8B2DCDB7DEB7E9E00C94B72DB70173
:101AC0008C2F0E94E60B0E94050C019779F3F1CF51
:101AD000CF93DF93EC010E94340DBE010E94E60B10
:101AE0000E94050CDF91CF910895983078F58630EB
:101AF00068F5E82FF0E086E0989FE00DF11D1124D5
:101B00009E2F977083E0F695E7958A95E1F7EE0FA3
:101B1000FF1FEE0FFF1FE855FD4F50E040E080E053
:101B2000219130E0092E02C0369527950A94E2F7FC
:101B300021703327042E01C0220F0A94EAF7822B6A
:101B40004F5F5F4F4430510559F7089580E0089585
:101B5000983098F5863088F5E82FF0E086E0989F79
:101B6000E00DF11D11248E2F877041E001C0440F5C
:101B70008A95EAF783E0F695E7958A95E1F7EE0F07
:101B8000FF1FEE0FFF1FE855FD4F30E020E070E033
:101B90005191DF011197CB01022E02C096958795D6
:101BA0000A94E2F7817081958527842385278C9399
:101BB0002F5F3F4F2430310559F708959093F2037A
:101BC0008093F103089521E030E002C0220F331F1B
:101BD0008A95E2F7209530958091F1039091F20378
:101BE000822393230E94DE0D08959091C702809571
:101BF00089238093C702282F277069F4891759F029
:101C000090912A0392FF07C08695869586950E943B
:101C1000E30D1092C702089521E030E002C0220FC8
:101C2000331F8A95E2F78091F1039091F203822BA2
:101C3000932B0E94DE0D08959093F0038093EF03A1
:101C40000895FC0124812223C1F0808191810E94AA
:101C5000680D92959F70963091F058F4925F9F7046
:101C6000923058F4803F19F030F4883E30F481E02F
:101C700008959A5FF4CF843FD1F380E00895883EC1
:101C8000B0F3813FD1F7F3CFA6E0B0E0EAE4FEE0A5
:101C90000C94A12D49835A8349815A819923A1F03B
:101CA000222391F0CA010E94340D182F682F8981D8
:101CB0009A810E94A80D69817A81812F0E94E60B8A
:101CC0002696E3E00C94BD2DCA010E94750D182FD5
:101CD000F2CFCF93DF93C091A706D091A8068A30A8
:101CE000C1F420919E04CE01815A9440622F70E08D
:101CF0000E947E2D281B822F66E00E94C92DC82FCE
:101D0000C15018F4DF91CF91089580E20E94690ECE
:101D1000F7CF8D30E9F4C15AD44020919E04622F50
:101D200070E0CE010E947E2D281B822F9E01280F7D
:101D3000311D2115324018F080E0D0E0C0E0C80F1E
:101D4000D11DCF55DB4FD093A806C093A706DACF9D
:101D500096E0FE01A1EAB6E001900D929A95E1F7B6
:101D6000803E08F458C086E0FE0111928A95E9F79A
:101D7000C091A706D091A80646E050E0BE0181EAD6
:101D800096E00E94F82D9E01215A3440892B41F1A2
:101D9000C90145E0969587954A95E1F741E050E005
:101DA000BA0102C0660F771F8A95E2F7CB016091F6
:101DB0009F047091A004862B972BB9016B5F7F4F16
:101DC000E5E076956795EA95E1F702C0440F551F67
:101DD0006A95E2F7842B952B9093A00480939F043F
:101DE0002A5F3F4F40919E04642F70E0C9010E941A
:101DF0007E2D481B463010F4240F311D211572E052
:101E0000370710F030E020E02F553B4F3093A80605
:101E10002093A70677CFF6E08F9FB001112464537B
:101E2000784F46E050E0CE010E94EF2DA1CFCF9336
:101E3000DF93EC01FE018491811103C0DF91CF910A
:101E400008950E94690E2196F5CF2091F3038091A9
:101E5000C802282B8091F403882381F0282B30E0DE
:101E600080EA92E0FC014191CF0141113F5FF2E035
:101E7000863A9F07B9F731111092F40320939E021E
:101E800048E050E069EC72E08EE992E00E94F82DA3
:101E9000892BA9F088E0EEE9F2E0A9ECB2E001902C
:101EA0000D928A95E1F7E0913804F091390430976A
:101EB00031F00280F381E02D8EE992E009950895DA
:101EC000882321F00E94230D0E94250F0895882366
:101ED00039F09091F303982B9093F3030E94250F10
:101EE00008950F931F93CF93DF938B01EA01909195
:101EF0004E04943061F58093E9008FEF9091E800F3
:101F0000815095FD06C095ED9A95F1F7000081117D
:101F1000F5CF8091E80085FF1AC00E94200781114B
:101F200011C08091E80085FD06C08091E8008E77A1
:101F30008093E800F2CFF80181918F018093F10046
:101F4000219779F78091E8008E778093E800DF9100
:101F5000CF911F910F91089543E050E0BC0182E0C2
:101F60000E94710F089546E050E0BC0182E00E949B
:101F7000710F0895CF93DF93EC0148E050E0BC016E
:101F800081E00E94710F88E0FE01A4E4B4E00190BA
:101F90000D928A95E1F7DF91CF91089581E08093CA
:101FA000E00080E28093D8001092C9008FE19EE4A7
:101FB0000197F1F700C0000087E090EBDC0180930F
:101FC000A9069093AA06A093AB06B093AC0688E14D
:101FD0009CE00FB6F894A895809360000FBE909394
:101FE0006000FFCF80914C03882339F13BB1377FEC
:101FF0002BB128604FB7F8948DE493E0FC01519128
:10200000CF0168E02BB9000000C057FF3BB9550F66
:10201000000000C000C000C03BB900C06A9591F745
:10202000F3E08F3E9F0751F74FBF8FE594E0019794
:10203000F1F700C0000010924C030895B0E0A0E05A
:10204000E4E2F0E10C949A2D7C015B016A0180913D
:102050001A0301E010E08A3010F40AE010E0C1E059
:10206000D0E0B501C701F6010995811104C02196A0
:102070000C171D072CF4CDB7DEB7EAE00C94B62D93
:10208000CC9F9001CD9F300D300D112490E080E069
:1020900045E34A95F1F70000019682179307C1F7CF
:1020A000E0CFAB0124E630E0BC0188E70E94322B90
:1020B00021E0892B09F020E0822F089580911B04F4
:1020C00090911E04911103C091E0892708958823FF
:1020D00069F062E070E080E593E00E9451108111A8
:1020E00003C080911B04089510921B0480911B046F
:1020F000EBCFCF93C0911B0480911E048823D1F0B5
:102100000E945F08605A75418F4F9F4F609317047C
:10211000709318048093190490931A04C11108C095
:1021200062E070E08EE493E00E945110811105C0DE
:10213000C0911B048C2FCF91089581E080931B04E4
:10214000F7CFB0E0A0E0E7EAF0E10C94982D0E9410
:10215000DB0A609344037093450380934603909396
:10216000470330919604D32FD37019F0D32FD6950F
:10217000D69520916C012130D9F0222359F02230DC
:1021800009F40AC1233009F411C1CDB7DEB7ECE080
:102190000C94B42D10925F0160934803709349032F
:1021A00080934A0390934B0381E080936C01EDCFC1
:1021B00090915E0181E0D9130BC0832F8370209131
:1021C0005D0130E091E08217130609F490E0892F59
:1021D00081708093610180919B04909160019817B8
:1021E00039F08093600140E060E080E00E94A50A41
:1021F000DD2321F0D13061F090E02BC0909161019E
:10220000992339F140E060E080E00E94A50AF4CF14
:1022100080915F010E94910A982E092FC090970427
:10222000D0909804E0919904F0E0E25BFD4FD1106A
:1022300025C0F4901F2DCF2DC92CD12CC01608F429
:1022400092C08091350491E0882309F49EC00B313F
:1022500098F680915F0121E0280F20935F01911192
:1022600098C092E090936C0190916101911191C09E
:10227000DD2309F499C00E94910A87CFED2CF12C3F
:10228000C4918C2EEC2FF0E026E0C29EC0011124F8
:102290002FEF30E0B9010E947E2D8C2D90E0880F49
:1022A000991FA5E5A69FA001A79F500D1124841B8F
:1022B000950BC82ECC0CC80EC9018E199F098E9F94
:1022C000A0018F9F500D9E9F500D1124152FDC9C57
:1022D000C0011124892F9927D901A81BB90BCD0161
:1022E0008E9FD0018F9FB00D9E9FB00D112459017C
:1022F000AC18B108AE9C6001AF9CD00CBE9CD00C59
:102300001124CD2CDD242C193D092E9FC0012F9FB7
:10231000900D3E9F900D1124F92E62307105A1F0B1
:1023200050F46115710509F487CF6130710581F0B2
:10233000F52E1B2F81CF6430710569F080F0663077
:10234000710509F479CFF4CFFC2EC52F192F74CF66
:10235000FC2ECB2F71CFF52E1C2FC92F6DCFC52F83
:10236000182DFB2E69CFF601E35AFD4F8081909125
:102370006001892331F0212F4F2D6C2FC6010E945F
:10238000F009BFEFCB1ADB0A59CF063308F461CF4F
:1023900033CFD11170CFF9CED0935E01832F8370EC
:1023A00080935D010E94F20F83E0FFCE809195043F
:1023B000882351F048E050E067E170E086E994E05E
:1023C0000E942C2E10929504C0904803D09049038F
:1023D000E0904A03F0904B03809134048823C1F0CD
:1023E0002FB7F89460913D0470913E0480913F04B2
:1023F000909140042FBF6C197D098E099F096031AF
:1024000071058105910508F4C0CE10926C01BDCE16
:102410000E94DB0AF0CF90912A0392FB222720F939
:10242000281779F080FB92F990932A036091290391
:1024300070912A0384E090E00E945A2E82E00E946C
:10244000F50D0895A4E0B0E0E8E2F2E10C94A12DCE
:1024500040910E0350910F0360911003709111038E
:102460002FB7F89480913D0490913E04A0913F04D1
:10247000B09140042FBF841B950BA60BB70B11E046
:1024800084369105A105B10570F10E94DB0A6E5FEB
:102490007F4F8F4F9F4F69837A838B839C8380917B
:1024A00031019091320182519D4F4091300150E0B5
:1024B0004530510510F044E050E0BE016F5F7F4FA2
:1024C0000E94052E86E090E00E94082D182F882398
:1024D00051F00E945F0860930E0370930F03809386
:1024E000100390931103812F2496E3E00C94BD2DEB
:1024F0004F925F926F927F928F929F92AF92BF9214
:10250000EF92FF920F931F93CF93DF937B01FB0119
:1025100040805180628073809FB7F89480903D0422
:1025200090903E04A0903F04B09040049FBF841858
:102530009508A608B708F4E68F169104A104B10423
:1025400018F4C1E0442329F1C82F880FDD0BFE01E8
:1025500083E0EE0FFF1F8A95E1F7E050FF4F818186
:10256000928182519D4F408150E00417150708F475
:10257000A801B9010E94052ECE010E94082DC82F86
:10258000882339F00E945F08F7016083718382839A
:1025900093838C2FDF91CF911F910F91FF90EF903C
:1025A000BF90AF909F908F907F906F905F904F9073
:1025B0000895A1E0B0E0EFEDF2E10C94A02D809140
:1025C0001B04898320910D0390E041E02817190630
:1025D00009F440E001E010E09E012F5F3F4F66E10B
:1025E00073E088E00E9478122196E4E00C94BC2D00
:1025F000A9E0B0E0EEEFF2E10C94A02D88E0E6E96E
:10260000F4E0DE01119601900D928A95E1F71986AA
:1026100049E050E064E073E0CE0101960E94F82D9D
:1026200041E0892B09F440E009E010E09E012F5FB2
:102630003F4F62E173E087E00E9478122996E4E060
:102640000C94BC2D0F931F93CF93DF93EC0144E0C8
:1026500050E063EF72E00E94F82D41E0892B09F40D
:1026600040E004E010E09E0165EE72E082E00E942E
:102670007812DF91CF911F910F9108954F925F9241
:102680007F928F929F92AF92BF92CF92DF92EF9202
:10269000FF920F931F93CF93DF930F92CDB7DEB7C7
:1026A000C62E4A015901482E880F5508C2010E94C2
:1026B000082D782E882309F480C0C20133E0880FEA
:1026C000991F3A95E1F7FC01E050FF4F438150E03C
:1026D0004115510511F041E050E080509F4FFC0141
:1026E0006481758162517D4FCE0101960E94052E55
:1026F000F40140815181628173812FB7F8948091F8
:102700003D0490913E04A0913F04B09140042FBF3E
:10271000841B950BA60BB70B84369105A105B1055B
:1027200040F4B701C8010E9430099981891709F462
:1027300044C00C2C000CDD08C6010E94082D782E28
:10274000811113C0712C872D0F90DF91CF911F91B4
:102750000F91FF90EF90DF90CF90BF90AF909F9040
:102760008F907F905F904F900895C60123E0880F6F
:10277000991F2A95E1F7FC01E050FF4F438150E09B
:10278000E416F50608F4A70180509F4FFC01648110
:10279000758162517D4FC5010E94052EB701C801A8
:1027A0000E94300999818913CDCF0E945F08F401FE
:1027B0006083718382839383C6CFA701B801C5016B
:1027C0000E94052EC0CFA8E0B0E0E9EEF3E10C9442
:1027D0009E2D88E0E82EF12C08EF12E09E012F5F7D
:1027E0003F4F4AEE52E064E083E00E943E13082F20
:1027F000882389F19091F7028091E902981759F1A5
:1028000010E09091FB028091FA028917F1F0E92F14
:10281000F0E0EE50FD4F828587FB662760F99F5FF1
:1028200093709093FB029091F9029F5F9093F9024D
:102830008F770E948509182F8111E3CF85E090E002
:102840000E94082D012F082302C01111F7CF80919B
:10285000F7028093E902802F2896E6E00C94BA2DC7
:10286000A4E0B0E0E6E3F4E10C949C2D6B0184E07D
:10287000E82EF12C0FEE12E09E012F5F3F4F41EE4C
:1028800052E061E080E00E943E13882361F04981BC
:102890005A816B817C814093DD025093DE0260930C
:1028A000DF027093E0024091DD025091DE02609100
:1028B000DF027091E002F6014083518362837383EB
:1028C0002496E8E00C94B82D1F920F920FB60F9249
:1028D00011242F933F934F935F936F937F938F9325
:1028E0009F93AF93BF93EF93FF938091E10082FF9B
:1028F00009C08091E20082FF05C08091E1008B7FDA
:102900008093E1008091DA0080FF24C08091D8009C
:1029100080FF20C08091DA008E7F8093DA00809162
:10292000D90080FF9DC080E189BD82E189BD09B4E5
:1029300000FEFDCF81E080934E048091410481111F
:1029400009C00E9401070E94A2078091E2008460F2
:102950008093E2008091E10080FF17C08091E20047
:1029600080FF13C08091E2008E7F8093E20080910F
:10297000E20080618093E2008091D80080628093C1
:10298000D80019BC85E080934E048091E10084FF5B
:102990002BC08091E20084FF27C080E189BD82E1E5
:1029A00089BD89B5982F917080FFFBCF8091D800A9
:1029B0008F7D8093D8008091E1008F7E8093E1002D
:1029C0008091E2008F7E8093E2008091E20081603E
:1029D0008093E20080914F04882309F447C084E08B
:1029E00080934E0480914E048091E10083FF27C0C4
:1029F0008091E20083FF23C08091E100877F809374
:102A0000E10082E080934E0410924F048091E10037
:102A10008E7F8093E1008091E2008E7F8093E200C0
:102A20008091E20080618093E20042E060E080E01B
:102A30000E9470078091F00088608093F000FF9101
:102A4000EF91BF91AF919F918F917F916F915F9126
:102A50004F913F912F910F900FBE0F901F9018959F
:102A600019BC10924E041092410474CF8091E3007F
:102A700087FD93E090934E04B5CF78941F921FB6D4
:102A80001F9211248F939F93AF93BF9380913D0426
:102A900090913E04A0913F04B09140040196A11D85
:102AA000B11D80933D0490933E04A0933F04B093E6
:102AB0004004BF91AF919F918F911F901FBE1F90B7
:102AC00018959C014FB7F89480913D0490913E0475
:102AD000A0913F04B09140044FBF821B930B089517
:102AE0002FB7F89480913D0490913E04A0913F044B
:102AF000B09140042FBF08950E9470159C019091E1
:102B0000300480913104982B21F030932D042093D0
:102B10002C049091320480913304982B21F030934F
:102B20002B0420932A04E0913804F0913904309763
:102B300049F082E080932E040680F781E02D8EE23A
:102B400094E009950895CF931092F303C6E0E0EA6C
:102B5000F2E0DF018C2F1D928A95E9F790E080E08A
:102B60000E94AA0890E080E00E9485081092C802A6
:102B70000E94250FEEE2F4E0DF011D92CA95E9F70D
:102B80001092270410922804109229040E947C15A8
:102B9000CF910895AAE2B0E0E0EDF5E10C94A12D0B
:102BA00080E594E02091F100FC012193CF01F4E055
:102BB00088359F07B9F780915104833009F470C0BC
:102BC000B8F4813009F447C0823009F4B1C0809173
:102BD000E80083FF7EC280915004909151049A30A6
:102BE00008F077C2E92FF0E0EE59F14D0C94E92D91
:102BF0008A3009F48CC08B3009F46FC0893039F702
:102C000080915004813219F78091540490915504B9
:102C10000297E8F68091E800877F8093E800809132
:102C2000E80082FF38C09091F3008091F200029793
:102C300031F48091F100813011F0863021F48091DF
:102C4000F100809343048091E8008B778093E80043
:102C50000E945107BCCF80915004813A09F0B7CF50
:102C60008091E800877F8093E800809154049091E0
:102C70005504892B61F468E084E494E070E00E94DC
:102C8000FD078091E8008B778093E800A0CF60E09B
:102C900090E080E0F3CF80914E048111C0CF97CFB8
:102CA00080915004813A09F092CF80915404909120
:102CB0005504892B09F08BCF8091E800877F8093A2
:102CC000E8008091E80080FFFCCF80916B01809349
:102CD000F1008091E8008E77B9CF80915004813265
:102CE00009F075CF8091540490915504892B09F017
:102CF0006ECF8091E800877F8093E8000E945107A3
:102D00008091520480936B010E94A31560CF809143
:102D10005004813209F05BCF8091E800877F809377
:102D2000E8000E94510780915304809342044FCFE2
:102D300080915004813A09F04ACF8091E800877F62
:102D40008093E8008091E80080FFFCCF80914204EE
:102D5000BECF803899F0823809F0BBC1809154040D
:102D60008F70873008F0B5C18093E9008091EB0047
:102D700085FB882780F91092E90006C080914C04F9
:102D800090914D04911182609091E800977F90930B
:102D9000E8008093F1001092F1008091E8008E77B6
:102DA00094C1882309F482C1823009F092C18091D4
:102DB0005204811185C1809154048F702FEF280F28
:102DC000263008F086C18093E9002091EB0020FFB7
:102DD00077C1933031F48091EB0080628093EB00F7
:102DE0006FC19091EB0090619093EB0021E030E097
:102DF00001C0220F8A95EAF72093EA001092EA00B8
:102E00008091EB008860EACF811163C11091520478
:102E10001F778091E3008078812B8093E30080917D
:102E2000E800877F8093E8000E9451078091E800C6
:102E300080FFFCCF8091E30080688093E30082E014
:102E4000111183E080934E0444C18058823008F011
:102E500040C180915204909153048C3D23E092072D
:102E6000A1F583E08A838AE289834FB7F894DE0173
:102E7000139620E03EE051E2E32FF0E0509357003C
:102E8000E49120FF03C0E295EF703F5FEF708E2F5B
:102E900090E0EA30C0F0C7968D939D932F5F243168
:102EA00059F74FBF8091E800877F8093E8006AE27E
:102EB00070E0CE0101960E94FD078091E8008B77BB
:102EC0008093E80006C1C096E7CF4091540450912A
:102ED0005504292F33272330310509F444C078F5F0
:102EE0002130310509F46FC08BE390E0EBE3F7E0AC
:102EF0002230310509F0EDC02091E800277F2093B2
:102F0000E80020915604309157048217930708F483
:102F10009C0140E02115310509F064C0411162C0F7
:102F20008091E80082FDC9CF80914E04882329F268
:102F3000853019F28091E80083FFF2CFBECF2132B5
:102F40003105A9F12232310509F0C3C041155105FF
:102F500009F443C04130510509F0BBC08BE790E054
:102F6000ECE7F6E0C9CF992781309105C1F00097D1
:102F700059F0029709F0ADC0E8E8F7E0E4918E2F30
:102F800090E0E8E8F7E007C0E8ECF7E0E4918E2F86
:102F900090E0E8ECF7E0009709F49BC0ADCFEEEAD3
:102FA000F7E0E4918E2F90E0EEEAF7E0F4CF4115E0
:102FB000510571F04130510509F08BC089E090E076
:102FC000E6E6F7E099CF82E190E0E6E7F7E094CF1C
:102FD00089E090E0EDE4F7E08FCF84E490E0E7EF64
:102FE000F6E08ACF80914E04882309F466CF8530BD
:102FF00009F463CF8091E80083FD5FCF8091E80002
:1030000082FD8ECF8091E80080FF84CF9091F30005
:103010008091F2002115310519F08830910550F0AA
:1030200041E0089709F040E08091E8008E778093B6
:10303000E80070CF44914093F1003196215031095E
:103040000196E8CF803809F044C08091E800877F7E
:103050008093E80080914F048093F1009ECE81110F
:1030600038C0109152041230A0F58091E800877F9B
:103070008093E80010934F040E945107112311F030
:1030800084E005C08091E30087FDFACF81E0809362
:103090004E0442E061EC81E00E94700742E261EC84
:1030A00082E00E94700780914E0413C08091520408
:1030B000813079F481E0933009F080E080934D0411
:1030C0001092E9008091E800877F8093E8000E94D9
:1030D00051078091E80083FF0AC08091E800877F54
:1030E0008093E8008091EB0080628093EB00AA96C9
:1030F000E3E00C94BD2D1F920F920FB60F92112496
:103100002F933F934F935F936F937F938F939F93EF
:10311000AF93BF93CF93DF93EF93FF93D091E900E9
:10312000DF708091EC00C82FC17080FDC0E8109264
:10313000E9008091F000877F8093F00078940E94EE
:10314000CA151092E9008091F00088608093F00029
:10315000CD2BCF70C093E900FF91EF91DF91CF911C
:10316000BF91AF919F918F917F916F915F914F919F
:103170003F912F910F900FBE0F901F9018950E94B6
:10318000A3152FEF84E39CE0215080409040E1F7AD
:1031900000C0000088E19CE00FB6F894A8958093E9
:1031A00060000FBE90936000FFCF4091300490917B
:1031B000320420913304662309F469C0942B922BC6
:1031C00020913104922B31F098E09093270491E004
:1031D000909328048D3C41F40E94020981958093CC
:1031E00031040E947C1508958E3C19F40E94020956
:1031F000F6CF8F3C31F40E94020981958093300410
:10320000F0CF803D19F40E940209F8CF893D29F4DE
:103210000E94E00880933204E4CF8A3D21F40E94AA
:10322000E0088195F7CF8B3D31F40E94E00881954D
:1032300080933304D6CF8C3D19F40E94E008F8CF78
:103240009FE2980F983070F4815D990B21E030E097
:1032500001C0220F8A95EAF780912F04822B809378
:103260002F04BFCF8D3D31F480912904816080937C
:103270002904B7CF8E3D21F4809129048260F7CFD5
:103280008F3D09F0AECF809129048460F0CF8D3C52
:1032900059F48091310487FF0DC01092310441111F
:1032A0000BC01092270408C08E3C81F48091310439
:1032B00018169CF3442381F08091320490913304DA
:1032C000892B09F08ECF109228048BCF8F3C49F4C4
:1032D00047FFF0CF10923004809131048111ECCF80
:1032E000E0CF803D19F41416ACF3E4CF893D29F406
:1032F000191604F710923204DDCF8A3D19F497FFB6
:10330000D9CFF8CF8B3D29F427FFD4CF10923304C7
:10331000D1CF8C3D19F41216CCF3CCCF9FE2980F8D
:10332000983090F4815D990B21E030E0B90102C042
:10333000660F771F8A95E2F7CB01809590912F0455
:10334000892380932F04B6CF8D3D31F480912904D9
:103350008E7F80932904AECF8E3D21F48091290485
:103360008D7FF7CF8F3D09F0A5CF809129048B7F0A
:10337000F0CF8823D1F19CEF980F913A78F4E0EAEE
:10338000F2E09191891303C0DF0111971C9292E042
:10339000E63AF907B1F70E94250F089590E2980FD9
:1033A000983050F4877091E001C0990F8A95EAF740
:1033B000892F0E94230DEFCF9BE5980F933028F4BF
:1033C00090E080E00E94AA08089598E5980F9B314C
:1033D00028F490E080E00E948508089593E3980F18
:1033E000933118F460E00E94D5180895CF93C82F48
:1033F0008823B1F08CEF8C0F813A00F5E0EAF2E01F
:1034000086EA92E0DF012D91C21761F08A179B07CF
:10341000D1F76C2F8EE992E00E946B080E94250F75
:10342000CF9108952191C21303C0DF0111971C921F
:103430008E179F07B9F70E94250FEBCF80E28C0F04
:10344000883068F4C77021E030E001C0220FCA95CF
:10345000EAF78091F303822B8093F303DFCFEBE550
:10346000EC0FE33040F4F0E0EA58FE4F808190E04A
:103470000E94AA08D5CFE8E5EC0FEB3150F4F0E05C
:10348000EE0FFF1FE758FE4F808191810E94850853
:10349000C7CF83E38C0F833118F661E08C2F0E9435
:1034A000D518BECF1F93CF93DF93182FEB010E9447
:1034B000F619209739F4812F0E94B919DF91CF9125
:1034C0001F9108958FE99FE00197F1F700C0000078
:1034D0002197EFCF0F931F93CF93DF93C62FD42F56
:1034E000022FFC0185818823A9F0609394040E9437
:1034F00070159093930480939204C77081E001C08B
:10350000880FCA95EAF70E94670FDF91CF911F914C
:103510000F91089580919404681334C080919204AF
:10352000909193040E946115883C910558F510E232
:103530001D0FCD17B9F080E28C0F883040F4C770B2
:1035400081E001C0880FCA95EAF70E94600F183029
:1035500048F481E09D2F977001C0880F9A95EAF793
:103560000E94670F70E060E0802F0E94521A1830AE
:1035700060F6D77081E001C0880FDA95EAF70E9403
:10358000600FC3CFC77081E001C0880FCA95EAF70A
:10359000F6CF80E09091220420912104291739F17F
:1035A000E92FF0E0ED5DFB4F808187FB222720F9BA
:1035B0008F779F5F937090932204909120049F5F78
:1035C00090932004882349F0813079F470E060E022
:1035D0008EE4211108C08BE406C070E060E089EA47
:1035E000211101C08AEA0E94521A81E0D3CF0895C6
:1035F000B0E0A0E0EEEFFAE10C949A2D8C01FC0112
:103600008481882341F121E040815181628173816D
:1036100095810E94440EEC01FC01E851FC47E73023
:10362000F105A8F5E459F14D0C94E92D26E241EE9F
:1036300061EEC8010E946A1A8091C702877059F032
:10364000F8018581882339F080912A0382FF03C025
:1036500082E00E94F50DCDB7DEB7EAE00C94B62DFE
:1036600027E245EE65EEE5CF26E241EE60EEE1CFE2
:1036700027E245EE64EEDDCF26E241EE62EED9CFE1
:1036800027E245EE66EED5CF28E241E0EBCFF80128
:103690008581882309F4CBC310929404CE019057FE
:1036A000839708F0AEC384E090E00E94262E9093AA
:1036B0002A0380932903FE01E150F047E232F1052D
:1036C00020F4ED58F14D0C94E92D8091290381608F
:1036D0008093290395C080912A03886080932A03F0
:1036E0008FC0809129038260F3CF80912903846089
:1036F000EFCF809129038860EBCF80912A0381600E
:10370000EDCF80912A038260E9CF80912903806107
:10371000DFCF809129038062DBCF80912903806411
:10372000D7CF0E94A315809129038068D1CF8091C3
:1037300029038C60CDCF80912A038360CFCF809105
:1037400029038E7FC5CF80912A03877FC7CF8091C1
:1037500029038D7FBDCF809129038B7FB9CF8091C5
:103760002903877FB5CF80912A038E7FB7CF8091C1
:103770002A038D7FB3CF809129038F7EA9CF8091BB
:1037800029038F7DA5CF809129038F7BA1CF0E9434
:10379000A315809129038F779BCF80912903837F85
:1037A00097CF80912A038C7F99CF8091290382FB48
:1037B000992790F921E0922790FB82F990FB83F9F9
:1037C00087CF80912A03982F909591708E7F892BB7
:1037D00090FB81F983CF90912903892F8F7B96FFEE
:1037E000806476CF0E94A31590912903892F97FBBF
:1037F00087F980586DCF61E08EE090E00E943C2E0A
:103800006091290370912A0384E090E00E945A2E6F
:103810000E94A31511CF60E0EFCF90912903892F6B
:103820008F7E94FF806154CF90912903892F8E7FE2
:1038300090FF81604DCF90912A03892F877F93FF5E
:1038400088604CCF8091A60281110FC089E2E0EA26
:10385000F2E026EA32E09191891303C0DF0111976B
:103860001C922E173F07B9F7DFC285E3F0CF809196
:10387000960491E089278093960410926C018091C0
:103880009504816080939504D7CE43E85AE06DE8B3
:103890007AE00E94EA09D0CE4DE85AE063E87AE087
:1038A000F8CF4FE65AE069E77AE0F3CF49E75AE00C
:1038B0006FE67AE0EECF45E55AE062E67AE0E9CFDE
:1038C00042E65AE065E57AE0E4CF4BE35AE068E48B
:1038D0007AE0DFCF48E45AE06BE37AE0DACF4FE1F9
:1038E0005AE06DE27AE0D5CF4DE25AE06FE17AE03E
:1038F000D0CF81E00E94C0069FCE0E94A315FFEFAB
:1039000024E33CE0F15020403040E1F700C00000EB
:103910000E94CE0F6FEF7FEF90E080E00E945A2E62
:103920000E94BF1880912A0382FB882780F991E0CA
:1039300089270E940B12F8018581C081D1818823DB
:1039400009F44DC0CE010E94340DF82E682FCE012F
:103950000E94A80DBE018F2D0E94E60B0E94050C4F
:10396000D82FC92FA82EF801C580B680B2943FE0A9
:10397000B3228091C702877009F1EC2CCC20F9F0BA
:10398000892F807F803469F080E28D0F8830B0F01D
:10399000892F807E803229F4F1E0FD1778F4BB2076
:1039A00069F080912A0382FF09C082E00E94F50D30
:1039B0008091C7028770EE24E3948111E12CDC2E04
:1039C000D2942FE0D2222BE02D1508F46DC0ED2DFE
:1039D000F0E0EB56F14D0C94E92D80E0AACFCE013A
:1039E0000E94750DF82EB6CF3C2F3F70F32EC07F8E
:1039F00019F0F29490EFF922CC20B9F0FF2069F091
:103A000080E28D0F883010F0A11009C08091F3037F
:103A1000F82AF092F3030E94250F8D2F43C0809166
:103A2000C802F82AF092C802F6CF8D2F0E94B91969
:103A3000FF20D1F1D05ED83010F0A11004C08F2D3E
:103A40000E94230D06C0F0948091C802F822F092E3
:103A5000C8020E94250F28C08C2F8F70F82EC07FBF
:103A6000C03219F0F29480EFF822AA2059F091E0C8
:103A7000A91609F478C0CC2009F484C0BB2009F44D
:103A800046C0CBCF80912A0382FD3DC0CC20A9F156
:103A9000FF2039F08091F303F82AF092F3030E949B
:103AA000250F80E00E94F619ED2DE850FF0B3497AA
:103AB00010F40E94CF08EE20A9F08091C70280FD8B
:103AC00011C0F80115828695869586950E940C0E88
:103AD000C8010E94F81A8091C7028695869586953E
:103AE0000E94E30D20E0F8014081518162817381E1
:103AF000848195810E94440EAECD80E00E94B91968
:103B0000FF2091F29CCFCC20A1F0B11004C08F2DEA
:103B10000E94670FC9CFE1E0BE12C6CF8091F403C7
:103B20009F2D9823F91609F4BFCFF82AF092F403D9
:103B3000BBCFB110B9CF8F2D0E94600F9091F403CD
:103B40008F2D892329F08F2D809589238093F4036D
:103B50008091A7029F2D982309F4A6CFF094F82214
:103B6000F092A702A1CFCC2029F0F5E0FB1508F4D4
:103B70009BCFCDCF24E02B1508F496CF8F2D0E943C
:103B8000600F92CFBB20D1F339E3A31209C08FEFAE
:103B900097EEE3E081509040E040E1F700C0000084
:103BA0008D2F0E94B91980CF8C2F869586958370B2
:103BB00069F0813009F078CF8D2F9C2F9370C11060
:103BC00002C080E090E00E9485086ECF8D2F9C2F70
:103BD0009370C11002C080E090E00E94AA0864CFF8
:103BE0006C2D8D2F0E94D5185FCF8C2F837009F01C
:103BF0003FC0C11059CF4D2F429546954770440F95
:103C0000440F2D2F2F7030E0042E02C0220F331FDF
:103C10000A94E2F790E080E0D4FF09C08FE090E0E2
:103C200002C0880F991F4A95E2F780959095C69536
:103C3000C695C370C23099F078F44091EF0350916B
:103C4000F003C13039F0822B932B842395230E94FB
:103C50001C0E2ACF242B352B822B932BF8CF822BB3
:103C6000932B2091EF033091F00382279327EFCF1E
:103C70008695CC2011F08C2F8170882309F414CF05
:103C80004D2F429546954770440F440F2D2F2F70AE
:103C900030E0042E02C0220F331F0A94E2F790E0B6
:103CA00080E0D4FF09C08FE090E002C0880F991F28
:103CB0004A95E2F780959095C695C695C370C23037
:103CC00099F078F44091F1035091F203C13039F04A
:103CD000822B932B842395230E94DE0DE5CE242B8B
:103CE000352B822B932BF8CF822B932B2091F10332
:103CF0003091F20382279327EFCFCF70CC2029F0A9
:103D00008C2F0E940C0E8D2F03CF8D2F0E94600FE1
:103D10008C2F0E94E30DC8CE8D2FF2EFAF1699F1D4
:103D2000FA1570F020EFA216D1F031EFA31691F042
:103D3000CC2009F456C0B11070CE8C2F8F7127C0E3
:103D400093EFA91639F1E4EFAE12F2CF90912A0366
:103D500092FD2EC08C2F8F71CC20D9F218C0CC20B0
:103D600069F0F4E0FB1508F49FCECF7181E090E09C
:103D700002C0880F991FCA95E2F7B8CF25E02B152E
:103D800008F492CEF2CF8C2F8F71C110C2CF0E9457
:103D90000C0E8ACE90E080E0CC2009F49DCFCF714C
:103DA00081E090E002C0880F991FCA95E2F794CF96
:103DB000CC2061F08C2F8F7192FFE9CF98E0899F22
:103DC0009001112423602093C702E1CF81E00E947B
:103DD000F50DE1E0EB1508F067CE82E00E94F50DED
:103DE00063CEBB2059F0893309F0DACEFFEF27EE1E
:103DF00033E0F15020403040E1F7D0CE8C2F8F716E
:103E000088CFC631FCE7DF0729F58091F3038A7A72
:103E100091E009F490E09093A60269E2811165E3D4
:103E20008EE992E00E946B080E94250F05CCC631F6
:103E30002CE7D20709F406CD8091F3038272FE01CC
:103E4000E052F847E531F10508F075CDEF55F14D39
:103E50000C94E92DC3303CE7D30709F45BCD50F453
:103E6000C1159CE7D90709F448CDC130DC4709F4F6
:103E700057CD61CDCB35FCE7DF0709F4AECDCC35AE
:103E80002CE7D20709F44ECDCA35DC4709F053CDF3
:103E900081E04FCDCF93DF938091C602807F09F000
:103EA0004DC08091C502882309F448C0E091910477
:103EB00050915804C091C102D091C0026091C202D9
:103EC0007091C30247E05E17C9F18E2F90E0E49F26
:103ED000F0011124E75AFB4F2481222391F1489FDE
:103EE000F001499FF00D1124DF01A75ABB4F119635
:103EF0002C9111972C1325C02C912D1322C01596AF
:103F00002C91159721111DC012962D913C91261BC5
:103F1000370B283C3105A8F48091C6028F70806170
:103F20008093C602E15AFB4F80818F70806180834D
:103F300080EC92E00E94F81A0E942A0DDF91CF9146
:103F40000895FC013196E770BECFA4E1B0E0EBEA42
:103F5000FFE10C94982D8C0186E0F801DE011F969C
:103F600001900D928A95E1F7F8018481E58090EC4B
:103F7000A92E92E0B92E9091C402911128C08823F5
:103F800019F1EE20F1F0C8010E94210EF82E8823CD
:103F9000C1F087E0F801D50101900D928A95E1F713
:103FA0008091C402813031F48091C0029091C102AD
:103FB0000E94680D0E944A1F8F2D6496ECE00C94BD
:103FC000B42DC8010E94F81AFF24F394F5CFD080D5
:103FD000C18082809380F090C5022091C20230910E
:103FE000C302A401421B530BFF2009F4D9C0483C73
:103FF000510508F092C08823F9F29091C102809196
:10400000C602282F207F09F056C0C91214C0909113
:10401000C002D91210C0E11048C08F708061809337
:10402000C60280EC92E00E94F81A8091C602F80164
:104030008683F12CC1CFE11038C06C2D8D2D0E94EC
:10404000CF066C2D8D2D0E94CF06E82E8111F1CF69
:10405000DF86C88A8F8598890E94680D292F22954E
:104060002F70243058F49F70223088F0992399F0F3
:10407000F8019681907F79F4FE2C9ECF2A5F2F70F5
:10408000223068F0C8010E94F81AEF2CF5CF99236E
:1040900011F0882389F3805E883070F3F3CF803F7E
:1040A00058F3815F833070F7E7CF8091C60281605B
:1040B0008093C602BECFC91207C09091C002D91228
:1040C00003C0EE2009F48DC0C8010E94210E882390
:1040D00009F477CFEE2009F474CF8091C6028032C4
:1040E00088F02091C0023091C102398728879B86D1
:1040F0008A869091C4029C871D868E87CE01089681
:104100000E94F81A87E0F801A0ECB2E001900D924D
:104110008A95E1F70E944A1F57CF9091C602292F36
:10412000207F51F480EC92E00E94F81A87E0F501BC
:1041300011928A95E9F77DCF882309F43DCF8091CC
:10414000C1028C1110C08091C002D8120CC0E110C5
:104150000AC09683C8010E94F81A87E0F5011192FF
:104160008A95E9F729CFC8010E94210E882309F416
:1041700028CFEE2009F425CF8091C602803210F2BC
:104180002091C0023091C1023A8329839C828B82A4
:104190009091C4029D831E828F83CE010196B0CF81
:1041A000483C5105D0F6882309F40ECFFE2CEE20B2
:1041B00009F407CF8091C1028C1120C08091C00208
:1041C000D8121CC08091C60280FD0FC0982F907F2E
:1041D00061F08683903F31F0982F907F905F8F70D1
:1041E000892B8683C8010E94F81A87E0F801A0ECA9
:1041F000B2E001900D928A95E1F7DECEC8010E94EF
:10420000210E81117FCF8091C60281608093C6020A
:10421000C8010E94F81AD0CEABE1B0E0E2E1F1E2D1
:104220000C94A02D4E8B5F8B688F798F8A8F9B8F1C
:10423000192F91111092C8021D8A86E0FE01769610
:10424000DE011F9601900D928A95E1F70A8D0023F9
:1042500041F021E04F85588969897A89C8010E9417
:10426000440E0B8B1C8B87E0FE013F96DE011896F7
:1042700001900D928A95E1F7CE0108960E94A51F44
:1042800081112AC087E0FE013896DE011196019067
:104290000D928A95E1F78C858823F1F020915804DE
:1042A00030E0C90101968770992740919104481721
:1042B0001906E9F097E0929FD001939FB00D112469
:1042C000A75ABB4FFE01319601900D929A95E1F7E6
:1042D000809358040E942A0D17E0809191049091D8
:1042E0005804891312C06B96E4E00C94BC2D0E9414
:1042F000A315109258041092910487E0E0ECF2E0CC
:10430000DF011D928A95E9F7E7CF819FC001112453
:10431000875A9B4F0E94A51F882329F380919104FF
:1043200090E001968770992780939104D6CF2F92C1
:104330003F925F926F927F928F929F92AF92BF92C5
:10434000CF92DF92EF92FF920F931F93CF93DF9361
:1043500080911E04882309F44CC180911C04909123
:104360001D040E946115C29708F424C10E947015B3
:1043700090931D0480931C04C0919E0481EA94E0F4
:104380009093A8068093A70680913404882309F4AB
:1043900047C160E870E082E593E00E94AA0924E04A
:1043A000C29FC0011124811562E0960714F090E0CD
:1043B00080E08F559B4F9093A8068093A70682EDCF
:1043C00093E00E94170F88E194E00E94170F8091FC
:1043D000F1039091F2032091EF033091F003822BCF
:1043E000932B292F33272115310509F45DC0C9010D
:1043F00028E0AC0174E0569547957A95E1F74115B0
:10440000510511F02C5FCA01AC01569547955695A0
:1044100047954115510511F02E5FCA019695879574
:10442000892B09F02F5F88EF93E0223051F088EE5E
:1044300093E0233031F088E094E0213011F088EDF2
:1044400093E00E94170F88E194E00E94170FC0913B
:10445000F4038091F303C82BDC2FD878C474DD23D8
:1044600029F181E494E00E94170F8AE394E0CC23C1
:1044700029F18CE394E00E94170F83E394E0C111CB
:1044800002C080E394E00E94170FDD23E9F08DE283
:1044900094E00E94170F88E294E00E94170FC11168
:1044A0001DC08EE194E01CC020E0A3CF8EE394E019
:1044B0000E94170FC11105C086E394E00E94170FF8
:1044C000E0CF88E394E0D7CF8AE294E00E94170F10
:1044D000CC2389F186E294E00E94170F81E294E0F8
:1044E0000E94170FC091F4038091F303C82BDC2FB7
:1044F000D171C272DD2321F187E694E00E94170F8B
:1045000080E694E0CC2321F182E694E00E94170F2C
:1045100089E594E00E94170FDD2311F183E594E013
:104520000E94170F8EE494E00E94170FC11123C060
:1045300084E494E022C084E294E00E94170FB1CF9B
:1045400084E694E00E94170FC11107C08CE594E047
:104550000E94170F86E594E0DDCF8EE594E0D6CF7C
:1045600080E594E00E94170FCC2309F454C08CE43A
:1045700094E00E94170F87E494E00E94170F0E94B6
:10458000CF08C82F86E794E0C0FF02C089E794E017
:104590000E94170F80E794E0C1FF02C083E794E018
:1045A0000E94170F8AE694E0C2FF02C08DE694E0F5
:1045B0000E94170F80919F049091A004892BB9F558
:1045C00080911B048823A9F00E945F0800911704C2
:1045D000109118042091190430911A04601B710B7A
:1045E000820B930B6F3F7F4F8F4F9F4710F40E94BA
:1045F0005E10DF91CF911F910F91FF90EF90DF90B0
:10460000CF90BF90AF909F908F907F906F905F9072
:104610003F902F9008958AE494E00E94170F88CF6E
:1046200060E072E08CE794E00E94AA09C3CF809119
:104630001E04882329F2809116048111C1CF0E94A3
:10464000791020919F043091A0042115310509F4BF
:10465000B7CF80E041E050E0082F10E01A01082EAB
:1046600002C0220C331C0A94E2F7B10162237323C7
:10467000672B11F48F5FF0CF9091150490FF95C0D8
:10468000880F880F880F8093640110926701895FFB
:104690008093650183E08093680124E630E047E081
:1046A00050E062E671E088E70E94EE2A892B09F06B
:1046B00087CFA80125E0440F551F2A95E1F7809187
:1046C000150480FF84C0E5EFF3E080E2DF011D9276
:1046D0008A95E9F7A7E9B2E003E912E08BE9C82E71
:1046E00082E0D82E97E0592E772473948D91E801BB
:1046F00029918E01240F352F311D2F553B4FE82F67
:10470000F0E0EB50FC4F90E080E0652C681A872CBD
:10471000082E01C0880C0A94EAF77901A12CE70160
:10472000B9907E01B820662D6A196770962E062E04
:10473000000C770BDB2D01C0DD0F9A94EAF7719521
:10474000619571096770772701C0B6946A95EAF799
:10475000BD2A6081962E9B289082A39468E0A612C1
:10476000DECF019631968830910579F6CA16DB06C0
:1047700009F0BCCF04E610E020E230E045EF53E062
:1047800060E488E70E94782B892B09F019CFE101BA
:10479000C095D09580919F049091A004C823D923FF
:1047A000D093A004C0939F040BCF8295880F80768E
:1047B0008093640198013695279536952795209327
:1047C0006701815E809365012093680166CF4F5534
:1047D0005B4F04E610E020E230E0D2CFACE0B0E086
:1047E000E4EFF3E20C94972D8E010F5F1F4F88E0EA
:1047F000D8011D928A95E9F78EE4C82E81E0D82E63
:10480000F12CE12CAA24A394B12C2EE4822E21E0D9
:10481000922EF60181916F018F3F09F442C0F89406
:10482000E82FE295EF70F0E021A18F70A50102C0A2
:10483000440F551F8A95E2F7CA01922F982B91A336
:1048400092A18095892382A3789400C0E8E4F1E0E6
:10485000712C31E021912F3F09F4B9C0A22FA2950C
:10486000AF70B0E090968C9190E02F7002C095955B
:1048700087952A95E2F780FDAAC0832F782A330F07
:104880008E169F0639F7F601319780818F3F11F020
:104890000E94C40A50EA5A95F1F7F801EE0DFF1D87
:1048A00070828FEFE81AF80A94E0E916F10409F033
:1048B000B0CF48E050E0B8018FE193E00E94F82DBE
:1048C000009741F028E0F801AFE1B3E001900D92CC
:1048D0002A95E1F70091280310E0055D1C4F892B14
:1048E00009F477C081E08093D5020E9470159093FF
:1048F000D4028093D302F12CE0903404EE2009F42A
:10490000C2C019861A861B861C8680911A038A30BB
:1049100008F083C040E354E1BE01675F7F4FC801E8
:104920000E941E10882309F49DC042E253E1BE019B
:10493000675F7F4FC8010E941E10882309F492C050
:1049400043EE53E1BE01675F7F4FC8010E941E1016
:10495000882309F487C042E252E1BE01675F7F4FBE
:10496000C8010E941E10882309F47CC048EF52E160
:10497000BE01675F7F4FC8010E941E10882309F4A3
:1049800071C049ED52E1BE01675F7F4FC8010E94CF
:104990001E10882309F466C010921A038091270321
:1049A00090E044E050E0BE01675F7F4F855D9C4F23
:1049B0000E94F82D21E02093DC02892B09F044C0ED
:1049C000E12C8E2D8F292C96EDE00C94B32D80E0F8
:1049D00055CFF090D502FF2009F48DCF8091D302FE
:1049E0009091D4020E946115059708F484CF44E0A9
:1049F00050E06FE173E0C8010E94F82D892B59F057
:104A000084E0EFE1F3E0D80101900D928A95E1F79F
:104A10001092D50271CFF12CFBCF8091D6029091EC
:104A2000D7020E946115843F914008F073CF8091B6
:104A3000DC02882329F2FE01399684E0DF011D9211
:104A40008A95E9F71092DC02E0912703F0E0E55D3A
:104A5000FC4F89859A85AB85BC8580839183A28331
:104A6000B383AFCF80911A038F3F31F08F5F809374
:104A70001A038A3008F492CF0E9470159093D702DF
:104A80008093D602D4CFC0902703D12CF601E55DE8
:104A9000FC4F6F0184E0F801AFEEB2E001900D929F
:104AA0008A95E1F764E070E08FEE92E00E943009B1
:104AB0008093EE0284E0E3EFF2E0D60101900D92E4
:104AC0008A95E1F788E0EFE1F4E0A8EFB2E0019029
:104AD0000D928A95E1F768E070E088EF92E00E941D
:104AE00030098093F7028090000390900103A0901A
:104AF0000203B09003038091D8029091D902A09153
:104B0000DA02B091DB0288169906AA06BB06B1F05C
:104B10008092D8029092D902A092DA02B092DB027F
:104B20000E945F08861A970AA80AB90A80921B0396
:104B300090921C03A0921D03B0921E0388E0E4E053
:104B4000F3E0A6E9B4E001900D928A95E1F7809137
:104B50000D03882319F00E94791033CF0E945E1054
:104B600030CFA6E0B0E0E7EBF5E20C94A02D0E9478
:104B700070158C018091D1029091D202801791071B
:104B800081F019821A820E947015682F49815A811A
:104B9000792F80E090E00E940C211093D2020093C4
:104BA000D1022696E4E00C94BC2D1F921FB61F92F2
:104BB00011248F939F93AF93BF9380913C048111F5
:104BC00013C080913D0490913E04A0913F04B091A8
:104BD00040044196A11DB11D80933D0490933E0475
:104BE000A0933F04B0934004BF91AF919F918F91E8
:104BF0001F901FBE1F901895CDB7DEB72E970FB62A
:104C0000F894DEBF0FBECDBF85B7806885BF85B77E
:104C1000806885BF84B7877F84BF0FB6F894A89556
:104C200080916000886180936000109260000FBEE8
:104C300080E890E00FB6F894809361009093610053
:104C40000FBE8EEB9AE090939D0280939C020E948F
:104C500001070E94A2078091E20084608093E20035
:104C6000789480914E048823A1F01091E9001F7080
:104C70009091EC00892F817090FD80E8182B1092A4
:104C8000E9008091E80083FD0E94CA151F7010930F
:104C9000E90082E084BD93E095BD9AEF97BD8093D3
:104CA0006E0010921B0310921C0310921D031092B1
:104CB0001E038091D80080618093D8002AE12A9554
:104CC000F1F700C08091D900182F117080FD04C049
:104CD0000E94010710924E041093340484988C981B
:104CE0008FE891E00197F1F700C000008FB1829545
:104CF0008170809335048093520180913404811136
:104D00000E941C2CEFE1F4E088E0DF011D928A95FF
:104D1000E9F78091520191E0892780933E038091C9
:104D2000520190934103809152018091520181116F
:104D300006C086EF8093690187EF80936A0160E087
:104D400080E00E94620961E080E00E946209EFE871
:104D5000F1E03197F1F700C0000010E080914103CD
:104D6000181708F4F4C080915201811120C081E32A
:104D700080934E0183E380934F0182E3809350013F
:104D800086E38093510186E0EDE6F1E0DE011196C5
:104D900001900D928A95E1F7FE013196A8E4B1E009
:104DA000CE01079621912D93E817F907D9F7809145
:104DB000520194E0811190E09093280384E0891BD4
:104DC000809327030EE411E052E5E52E51E0F52E25
:104DD000D8018D918D018F3F11F00E94C40AE01619
:104DE000F106B1F708E411E04EE4E42E41E0F42EC0
:104DF000F80181918F018F3F11F00E94C40AE016E3
:104E0000F106B1F788E0EBE2F3E0DF01282F1D9215
:104E10002A95E9F7EFE1F3E0DF011D928A95E9F7C2
:104E200090E080E00E94262E853E9E4F09F461C0EE
:104E300065EE7EEF90E080E00E945A2E60E082E016
:104E400090E00E943C2E81E090E09093F0038093EC
:104E5000EF0361E083E090E00E943C2E60E074E1AB
:104E600084E090E00E945A2E60E086E090E00E948C
:104E70003C2E60E087E090E00E943C2E40E050E055
:104E8000BA0188E090E00E944E2E60E083E290E05C
:104E90000E943C2E60E08CE090E00E943C2E60E09E
:104EA0008DE090E00E943C2E19821A821B821C82A7
:104EB0001D821E821F82188648E050E067E170E084
:104EC000CE0101960E942C2E40E050E0BA018FE105
:104ED00090E00E944E2E40E050E0BA018FE090E05A
:104EE0000E944E2E40E050E0BA0183E190E00E9423
:104EF0004E2E82E090E00E941E2E8093330384E0C9
:104F000090E00E94262E90932A03809329030E940A
:104F1000EE23EFEFF6E721E0E150F0402040E1F72B
:104F200000C000000E94EE2380913504E4E081116E
:104F3000E0E0F0E0E55DFC4F808185FF1AC06FEF97
:104F40007FEF90E080E00E945A2E0E94CE0F60E03A
:104F5000812F0E944609082F61E0812F0E94460997
:104F6000E12FF0E0E15CFC4F880F802B80831F5F16
:104F7000F5CE83E090E00E941E2E90E00E941C0E71
:104F80000E941B0A81E08093950448E050E067E1AD
:104F900070E086E994E00E940E2E109295048091B4
:104FA00096048C7FF9F485E08093960480917301D8
:104FB00090917401A0917501809397049093980447
:104FC000A09399048FE780939A048FEF80939B04BA
:104FD00048E050E067E170E086E994E00E942C2E02
:104FE0001092950483E08093150480E280939E04E0
:104FF0000E94BA2A6BE070E083E492E00E945110B4
:105000008823E9F18091150465E070E081FDA1C07D
:105010008EE392E00E945110882389F16DE070E0E8
:105020008CE292E00E945110882349F10E945F08AF
:10503000605A75418F4F9F4F609317047093180407
:105040008093190490931A04E1EAF4E080E092E07E
:10505000DF019C011D9221503040E1F7F093A8063A
:10506000E093A7068FEF9FEF9093A00480939F0497
:1050700081E080931E0480931B041092160480919B
:105080003404811102C00E941F2C83E591E09093AB
:1050900039048093380498E1C92ED12C23E3A22E41
:1050A00023E0B22E34E0832E912C80914E0400E157
:1050B00012E1853009F488C00E94EE2304E313E076
:1050C0008BE2E82E83E0F82ED701F80191918D91C3
:1050D00023E0EC33F20709F481C09817B9F320906C
:1050E0003404712CD7016D907D01F80131908F014E
:1050F000361431F1512C442443943624832D8421D9
:10510000B9F02220A9F059867A860E9470159C87F2
:105110008B87F1E0FD8791E0862D842109F490E0F2
:105120009E8749855A856B857C858D850E940C21DB
:105130005394440C26E05212E1CFF801319760827B
:10514000739438E07312CECF0E94DB0A77247394F5
:105150004AC089E392E05ECF80914E04843031F101
:105160000E94A1100E945E1010923C0430E40FB621
:10517000F894A895C09260000FBE3093600083B78A
:10518000817F846083BF83B7816083BF7894889573
:1051900083B78E7F83BF0FB6F894A8958091600087
:1051A000886180936000109260000FBE80914D0472
:1051B000882351F00E94EE23EBE2F3E0819181110C
:1051C00063C1AE16BF06D1F780914E04853009F455
:1051D000C3CF0E94A3150E94CF086ECF98137FCF34
:1051E0000E94B125712C0E94A110E0903404EE20A1
:1051F00019F00E94C91AE82E80914203882351F0C9
:1052000010924203809121048093220480911F0414
:1052100080932004F12C80914103F81688F080914E
:105220003404882319F00E94C91AE82AEE2009F4F0
:1052300043C00E94DB0A0E9497210E94791040C05F
:1052400061E08F2D0E944609182F60E08F2D0E948B
:105250004609E12FEE0F8E2B0F2D10E0D801A15C37
:10526000BC4FEC919E2F9370891721F1EE0FEE0F3A
:10527000E82BEC9380913E038F0DEF70F0E0EF543C
:10528000FE4F045C1C4F6080D8019C91690E6C92AB
:10529000B3E060E0B61524F0EDEF6E161CF461E0AB
:1052A0000E948509862D660C990BB4010E94D52DAC
:1052B000D8018C93F394AFCF0E9497217110BDCF8A
:1052C00086E0EEE2F4E0DE01119601900D928A95FF
:1052D000E1F770902F041091300400913104E090B8
:1052E0003204F09033041092300410923104109282
:1052F000320410923304812F802B09F445C0809131
:105300002C0490912D040E9461159C01909127041A
:10531000992309F4D8C025313105B0F19F3F19F028
:105320009F5F90932704112359F00E9402099FEF79
:1053300011160CF491E0899F802D11248093300484
:10534000002359F00E94020991E010160CF09FEF23
:10535000899F802D1124809331048091300488230B
:1053600099F060903104662079F00E942209882328
:1053700009F482C080933004862D0E94220988237C
:1053800009F47CC0809331048E2D8F2909F443C029
:1053900080912A0490912B040E9461159C019091A8
:1053A0002804992309F48AC021353105A0F19F3FD3
:1053B00019F09F5F90932804EE2059F00E94E008B6
:1053C0009FEF1E140CF491E0899F802D112480938F
:1053D0003204FF2059F00E94E00891E01F140CF005
:1053E0009FEF899F802D1124809333048091320494
:1053F000882389F0E0903304EE2069F00E942209AE
:105400008823F1F1809332048E2D0E942209882393
:10541000C9F18093330480912F04781216C08091D3
:105420003004882311F0181310C020913104222376
:1054300011F002130AC090913304992311F09F11C7
:1054400004C0309132043323A9F10E947C1586E018
:10545000FE013196AEE2B4E001900D928A95E1F73B
:105460000E94CF0890914303891709F41ECE8093C0
:1054700043030E945F0819CE81E07CCF81E082CF98
:1054800081E0C0CF81E0C5CF09BD19BD09B400FEE0
:10549000FDCF8091D8008F7D8093D8008091E0006F
:1054A00082608093E0008091E00081FDFCCF0E944B
:1054B000A3158ACE822B892B51F2C7CF2B30310511
:1054C00008F077CFA8CF2B30310508F029CF5CCF7B
:1054D000EF92FF920F931F93CF93DF93182FEB015F
:1054E0001092BC0084EA8093BC000E9470157C017D
:1054F0008091BC0087FF27C08091B900887F8830E9
:1055000029F08091B900887F803189F51093BB0024
:1055100084E88093BC000E9470158C018091BC00CF
:1055200087FF1EC02091B900287F90E080E02831DD
:1055300091F081E090E0203411F490E080E09195CA
:105540008195910908C0C7010E946115C817D90744
:1055500078F68EEF9FEFCDB7DEB7E6E00C94BA2D6C
:10556000C8010E946115C817D907C0F6F2CF8FEFA6
:105570009FEFF1CF1092B9008CE08093B8000895AE
:105580000F931F93CF93DF93EB018093BB0084E8CD
:105590008093BC000E9470158C018091BC0087FF35
:1055A00011C02091B900287F81E090E0283211F4E9
:1055B00090E080E0919581959109DF91CF911F91C5
:1055C0000F910895CF3FDC0741F3C8010E94611598
:1055D000C817D90710F78EEF9FEFEFCFB0E0A0E02C
:1055E000E4EFFAE20C94972D782E5B016A018901B1
:1055F0000E9470154C01C1E0D0E00431110558F053
:10560000C5E0D0E00F3F100731F0C80164E170E061
:105610000E947E2DEB01BE01872D0E94682A7C012D
:1056200097FF09C00F3F1007B1F3C4010E94611535
:105630000817190780F7E501CA0CDB1CCC15DD053E
:1056400011F0F7FE09C084E98093BC00C701CDB713
:10565000DEB7EDE00C94B32DB80189910E94C02A09
:105660007C01ECCFB0E0A0E0E8E3FBE20C94972DE6
:10567000782E5B016A0189010E9470154C01C1E01E
:10568000D0E00431110558F0C5E0D0E00F3F10071D
:1056900031F0C80164E170E00E947E2DEB01BE0193
:1056A000872D0E94682A7C0197FF09C00F3F1007D1
:1056B000B1F3C4010E9461150817190780F7E501CD
:1056C000CA0CDB1CCC15DD0511F0F7FE09C084E91E
:1056D0008093BC00C701CDB7DEB7EDE00C94B32DCD
:1056E000FE018491B8010E94C02A7C012196EACF74
:1056F000B0E0A0E0EEE7FBE20C94962D682E762E4B
:105700005A0169010E9470154C01C1E0D0E00431DA
:10571000110558F0C5E0D0E00F3F100731F0C80187
:1057200064E170E00E947E2DEB01BE01862D0E9497
:10573000682A7C0197FF1DC00F3F1007B1F3C40119
:105740000E9461150817190780F784E98093BC004F
:10575000C701CDB7DEB7EEE00C94B22DB801899148
:105760000E94C02A7C01CC16DD0679F3F7FEF6CF45
:10577000ECCFB801872D0E94C02A7C01E501CA0C3C
:10578000DB1CF1CF8EE14A9B02C08150E1F74A9BBE
:10579000FECF08955A9880E28A95F1F75A9A0895B3
:1057A000FC013BE03A95F1F798E020E080E031E041
:1057B00040E14A95F1F7880F4A9B02C08160232798
:1057C00042E04A95F1F7000040E14A95F1F7915027
:1057D00079F790E19A95F1F799B132E03A95F1F7BE
:1057E000000040E14A95F1F792FB992790F9922742
:1057F0002081920F90830895A1E0B0E0E2E0FCE206
:105800000C949E2D19828C017C01E60EF11C0E1564
:105810001F0541F481E09981911180E02196E6E035
:105820000C94BA2D0E94C22BCE0101960E94D02B5F
:10583000F80181938F01EBCF529A5A9A08955298AA
:105840005A9AEA9AE9E6F0E080818F7C8083089595
:105850006150770B91E001C0990F6A95EAF720E05B
:1058600031E0911108C0222391F05A9A80E28A9582
:10587000F1F75A980895492F482339F05A9A232767
:1058800040E24A95F1F79695ECCF5A98F9CF5A989D
:10589000EDCFFF920F931F93CF93DF93EC018C0119
:1058A000060F111DC017D10729F4CDB7DEB7E5E00B
:1058B0000C94BB2DF9900E94CA2B68E08F2D0E949A
:1058C000282CF0CF1F920F920FB60F9211240F9336
:1058D0001F932F933F934F935F936F937F938F9378
:1058E0009F93AF93BF93EF93FF93CF93DF930F9269
:1058F000CDB7DEB719820E94C22BCE0101960E945D
:10590000D02B082F069506950695282F22952570F1
:10591000902F9570290F922F937026952695920FB0
:10592000982797708981982B09F05CC00A3008F09D
:1059300059C080E18A95F1F75A9A529A82E08A9585
:10594000F1F700C05A9888E0089F80011124D8011F
:10595000A050BF4F1696ED91FC9117973097A9F084
:105960006091AF017091B00114962D913C91159703
:10597000260F371F11968D919C911297680F791FF2
:1059800013964C9113978C910995F801E050FF4FB5
:105990006381662351F02091AF013091B001848181
:1059A0009581820F931F0E94492C0E94CA2B80E18F
:1059B0008A95F1F75A9852985A9A80E18A95F1F7A8
:1059C000F801E050FF4F6081662351F02091AF0154
:1059D0003091B00181819281820F931F0E94FC2B34
:1059E0000E94C22B0F90DF91CF91FF91EF91BF9159
:1059F000AF919F918F917F916F915F914F913F9167
:105A00002F911F910F910F900FBE0F901F9018951F
:105A10000F931F93CF93DF93EC010A970CF04CC0C8
:105A2000F894529A5A9885E08A95F1F700009C2FD5
:105A3000969595708C2F8570980F892F8370969509
:105A4000969523E0CC0FDD1F2A95E1F7980F8E0184
:105A5000092B0E94CA2B00C068E0802F0E94282CCE
:105A600080E18A95F1F752985A9A4A9B1EC087E0C6
:105A700090E04A991CC0FE01E050FF4F638166230D
:105A8000F9F02091AF013091B00184819581820FAE
:105A9000931F0E94FC2B811113C0529A5A9A78943A
:105AA000DF91CF911F910F91089500C0DECF019734
:105AB00029F4529A5A9A789480E0F2CF00C0D9CF54
:105AC0000E94C22B80E28A95F1F75A98529A80E19F
:105AD0008A95F1F7C050DF4F6881662351F020911D
